{
  "contractName": "VoteToken",
  "abi": [
    {
      "inputs": [
        {
          "name": "_totalSupply",
          "type": "uint256"
        }
      ],
      "payable": false,
      "stateMutability": "nonpayable",
      "type": "constructor"
    },
    {
      "anonymous": false,
      "inputs": [
        {
          "indexed": false,
          "name": "_from",
          "type": "address"
        },
        {
          "indexed": false,
          "name": "_to",
          "type": "address"
        },
        {
          "indexed": false,
          "name": "value",
          "type": "uint256"
        }
      ],
      "name": "Transfer",
      "type": "event"
    },
    {
      "constant": true,
      "inputs": [
        {
          "name": "owner",
          "type": "address"
        }
      ],
      "name": "balanceOf",
      "outputs": [
        {
          "name": "",
          "type": "uint256"
        }
      ],
      "payable": false,
      "stateMutability": "view",
      "type": "function"
    },
    {
      "constant": false,
      "inputs": [
        {
          "name": "_to",
          "type": "address"
        },
        {
          "name": "_value",
          "type": "uint256"
        }
      ],
      "name": "transfer",
      "outputs": [
        {
          "name": "",
          "type": "bool"
        }
      ],
      "payable": false,
      "stateMutability": "nonpayable",
      "type": "function"
    },
    {
      "constant": true,
      "inputs": [],
      "name": "getTotalSupply",
      "outputs": [
        {
          "name": "",
          "type": "uint256"
        }
      ],
      "payable": false,
      "stateMutability": "view",
      "type": "function"
    }
  ],
  "bytecode": "0x608060405234801561001057600080fd5b50604051602080610452833981018060405281019080805190602001909291905050508060008190555080600160003373ffffffffffffffffffffffffffffffffffffffff1673ffffffffffffffffffffffffffffffffffffffff16815260200190815260200160002081905550506103c48061008e6000396000f300608060405260043610610057576000357c0100000000000000000000000000000000000000000000000000000000900463ffffffff16806370a082311461005c578063a9059cbb146100b3578063c4e41b2214610118575b600080fd5b34801561006857600080fd5b5061009d600480360381019080803573ffffffffffffffffffffffffffffffffffffffff169060200190929190505050610143565b6040518082815260200191505060405180910390f35b3480156100bf57600080fd5b506100fe600480360381019080803573ffffffffffffffffffffffffffffffffffffffff1690602001909291908035906020019092919050505061018c565b604051808215151515815260200191505060405180910390f35b34801561012457600080fd5b5061012d61038f565b6040518082815260200191505060405180910390f35b6000600160008373ffffffffffffffffffffffffffffffffffffffff1673ffffffffffffffffffffffffffffffffffffffff168152602001908152602001600020549050919050565b6000600160003373ffffffffffffffffffffffffffffffffffffffff1673ffffffffffffffffffffffffffffffffffffffff1681526020019081526020016000205482111515156101dc57600080fd5b81600160003373ffffffffffffffffffffffffffffffffffffffff1673ffffffffffffffffffffffffffffffffffffffff1681526020019081526020016000205403600160003373ffffffffffffffffffffffffffffffffffffffff1673ffffffffffffffffffffffffffffffffffffffff1681526020019081526020016000208190555081600160008573ffffffffffffffffffffffffffffffffffffffff1673ffffffffffffffffffffffffffffffffffffffff1681526020019081526020016000205401600160008573ffffffffffffffffffffffffffffffffffffffff1673ffffffffffffffffffffffffffffffffffffffff168152602001908152602001600020819055507fddf252ad1be2c89b69c2b068fc378daa952ba7f163c4a11628f55a4df523b3ef338484604051808473ffffffffffffffffffffffffffffffffffffffff1673ffffffffffffffffffffffffffffffffffffffff1681526020018373ffffffffffffffffffffffffffffffffffffffff1673ffffffffffffffffffffffffffffffffffffffff168152602001828152602001935050505060405180910390a16001905092915050565b600080549050905600a165627a7a7230582022cdde0f9ae8f2d1a22a8c8f3694b47d4824ee2065b8d4d39be87336ee52be700029",
  "source": "pragma solidity ^0.4.25;\n\ncontract VoteToken{\n    uint256 private totalSupply;\n    mapping(address=>uint256) private balance;\n    event Transfer(\n      address _from,\n      address _to,\n      uint256 value\n      );\n\n\n    constructor(uint256 _totalSupply) public{\n        totalSupply=_totalSupply;\n        balance[msg.sender]=_totalSupply;\n    }\n\n    function balanceOf(address owner) public view returns(uint256){\n        return balance[owner];\n    }\n\n    function transfer(address _to,uint256 _value) public returns(bool){\n        require(_value<=balance[msg.sender]);\n        balance[msg.sender]=balance[msg.sender]-(_value);\n        balance[_to]=balance[_to]+(_value);\n        emit Transfer(msg.sender,_to,_value);\n        return true;\n    }\n\n    function getTotalSupply() public view returns(uint256){\n        return totalSupply;\n    }\n\n}\n",
  "sourcePath": "/home/magneto/ethereum/Vote_Token/contracts/VoteToken.sol",
  "compiler": {
    "name": "solc",
    "version": "0.4.25+commit.59dbf8f1.Emscripten.clang"
  },
  "schemaVersion": "2.0.2",
  "updatedAt": "2019-04-04T15:04:35.862Z"
}