{
  "contractName": "VoteTokenSender",
  "abi": [
    {
      "constant": true,
      "inputs": [
        {
          "name": "",
          "type": "bytes32"
        }
      ],
      "name": "isRegistered",
      "outputs": [
        {
          "name": "",
          "type": "bool"
        }
      ],
      "payable": false,
      "stateMutability": "view",
      "type": "function"
    },
    {
      "constant": true,
      "inputs": [],
      "name": "tokenContract",
      "outputs": [
        {
          "name": "",
          "type": "address"
        }
      ],
      "payable": false,
      "stateMutability": "view",
      "type": "function"
    },
    {
      "constant": true,
      "inputs": [],
      "name": "admin",
      "outputs": [
        {
          "name": "",
          "type": "address"
        }
      ],
      "payable": false,
      "stateMutability": "view",
      "type": "function"
    },
    {
      "inputs": [
        {
          "name": "_tokenContract",
          "type": "address"
        }
      ],
      "payable": false,
      "stateMutability": "nonpayable",
      "type": "constructor"
    },
    {
      "constant": false,
      "inputs": [
        {
          "name": "_to",
          "type": "address"
        }
      ],
      "name": "sendToken",
      "outputs": [
        {
          "name": "",
          "type": "bool"
        }
      ],
      "payable": false,
      "stateMutability": "nonpayable",
      "type": "function"
    },
    {
      "constant": false,
      "inputs": [
        {
          "name": "_to",
          "type": "address"
        }
      ],
      "name": "registerReceiver",
      "outputs": [
        {
          "name": "",
          "type": "bytes32"
        }
      ],
      "payable": false,
      "stateMutability": "nonpayable",
      "type": "function"
    }
  ],
  "bytecode": "0x608060405234801561001057600080fd5b506040516020806105c98339810180604052810190808051906020019092919050505080600160006101000a81548173ffffffffffffffffffffffffffffffffffffffff021916908373ffffffffffffffffffffffffffffffffffffffff160217905550336000806101000a81548173ffffffffffffffffffffffffffffffffffffffff021916908373ffffffffffffffffffffffffffffffffffffffff16021790555050610505806100c46000396000f30060806040526004361061006d576000357c0100000000000000000000000000000000000000000000000000000000900463ffffffff16806327258b221461007257806355a373d6146100bb5780639fa8bdab14610112578063c575c23814610171578063f851a440146101cc575b600080fd5b34801561007e57600080fd5b506100a16004803603810190808035600019169060200190929190505050610223565b604051808215151515815260200191505060405180910390f35b3480156100c757600080fd5b506100d0610243565b604051808273ffffffffffffffffffffffffffffffffffffffff1673ffffffffffffffffffffffffffffffffffffffff16815260200191505060405180910390f35b34801561011e57600080fd5b50610153600480360381019080803573ffffffffffffffffffffffffffffffffffffffff169060200190929190505050610269565b60405180826000191660001916815260200191505060405180910390f35b34801561017d57600080fd5b506101b2600480360381019080803573ffffffffffffffffffffffffffffffffffffffff1690602001909291905050506102c3565b604051808215151515815260200191505060405180910390f35b3480156101d857600080fd5b506101e16104b4565b604051808273ffffffffffffffffffffffffffffffffffffffff1673ffffffffffffffffffffffffffffffffffffffff16815260200191505060405180910390f35b60026020528060005260406000206000915054906101000a900460ff1681565b600160009054906101000a900473ffffffffffffffffffffffffffffffffffffffff1681565b600081604051808273ffffffffffffffffffffffffffffffffffffffff1673ffffffffffffffffffffffffffffffffffffffff166c0100000000000000000000000002815260140191505060405180910390209050919050565b60003373ffffffffffffffffffffffffffffffffffffffff166000809054906101000a900473ffffffffffffffffffffffffffffffffffffffff1673ffffffffffffffffffffffffffffffffffffffff1614151561032057600080fd5b600015156002600061033185610269565b6000191660001916815260200190815260200160002060009054906101000a900460ff16151514151561036357600080fd5b600160009054906101000a900473ffffffffffffffffffffffffffffffffffffffff1673ffffffffffffffffffffffffffffffffffffffff1663a9059cbb8360016040518363ffffffff167c0100000000000000000000000000000000000000000000000000000000028152600401808373ffffffffffffffffffffffffffffffffffffffff1673ffffffffffffffffffffffffffffffffffffffff16815260200182815260200192505050602060405180830381600087803b15801561042957600080fd5b505af115801561043d573d6000803e3d6000fd5b505050506040513d602081101561045357600080fd5b8101908080519060200190929190505050151561046f57600080fd5b60016002600061047e85610269565b6000191660001916815260200190815260200160002060006101000a81548160ff02191690831515021790555060019050919050565b6000809054906101000a900473ffffffffffffffffffffffffffffffffffffffff16815600a165627a7a723058205de2da7a8f9262c6368d9593dbfb5c0521648d3fdd2cb4b10e4bdc51db30a4370029",
  "source": "pragma solidity ^0.4.25;\nimport \"./VoteToken.sol\";\ncontract VoteTokenSender{\n      address public admin;\n      VoteToken public tokenContract;\n      mapping(bytes32=>bool) public isRegistered;\n      constructor(VoteToken _tokenContract) public{\n          tokenContract=_tokenContract;\n          admin=msg.sender;\n      }\n      function sendToken(address _to) public returns(bool){\n          require(admin==msg.sender);\n          require(isRegistered[registerReceiver(_to)]==false);\n          require(tokenContract.transfer(_to,1));\n          isRegistered[registerReceiver(_to)]=true;\n          return true;\n      }\n      function registerReceiver(address _to) public returns(bytes32){\n          return keccak256(_to);\n      }\n\n}\n",
  "sourcePath": "/home/magneto/ethereum/Vote_Token/contracts/VoteTokenSender.sol",
  "compiler": {
    "name": "solc",
    "version": "0.4.25+commit.59dbf8f1.Emscripten.clang"
  },
  "schemaVersion": "2.0.2",
  "updatedAt": "2019-04-04T15:04:35.859Z"
}